:100000000C9462000C948A000C948A000C948A0070
:100010000C948A000C948A000C948A000C948A0038
:100020000C948A000C948A000C948A000C948A0028
:100030000C948A000C948A000C948A000C948A0018
:100040000C944E050C948A000C94BE050C949805F3
:100050000C948A000C948A000C948A000C948A00F8
:100060000C948A000C948A000000000024002700F1
:100070002A0000000000250028002B0000000000DE
:1000800023002600290004040404040404040202DA
:100090000202020203030303030301020408102007
:1000A0004080010204081020010204081020000012
:1000B0000008000201000003040700000000000027
:1000C0000000F00511241FBECFEFD8E0DEBFCDBF8A
:1000D00011E0A0E0B1E0EAEAF3E102C005900D9280
:1000E000A438B107D9F722E0A4E8B1E001C01D921D
:1000F000A53BB207E1F710E0C2E6D0E004C02197CB
:10010000FE010E94B909C136D107C9F70E94A906AC
:100110000C94D3090C94000096E0899FD00111241F
:10012000A25DBD4F90967C936E935F9791E0919600
:100130009C939197E0919B02F0919C0290919A027E
:10014000992339F0309751F0811108C080914A020B
:100150000994309719F05C968C91FACF0895CF925C
:10016000DF92EF92FF920F931F9396E0899FF00129
:100170001124E25DFD4F11A2278D30A12130310500
:1001800051F178F02230310509F451C023303105A6
:1001900009F452C01F910F91FF90EF90DF90CF9024
:1001A00008956623B9F361E070E00E948C002FB7D8
:1001B000F89480918D0190918E01A0918F01B09162
:1001C00090012FBF8093860290938702A0938802AC
:1001D000B0938902DFCF9FB7F894C0908D01D09083
:1001E0008E01E0908F01F09090019FBF00918602F8
:1001F000109187022091880230918902C01AD10A99
:10020000E20AF30A009198021091990230E020E08E
:100210000C151D052E053F0550F462E070E01F919E
:100220000F91FF90EF90DF90CF900C948C006111B4
:10023000B1CF63E070E0F3CF70E060E0F0CF8330E7
:1002400081F028F4813099F08230A9F00895873048
:10025000A9F08830C9F08430B1F4809180008F7D9E
:1002600003C0809180008F7780938000089584B5CB
:100270008F7784BD089584B58F7DFBCF8091B000CA
:100280008F778093B00008958091B0008F7DF9CF73
:10029000CF93DF93282F30E0F901E255FF4F84918F
:1002A000F901E656FF4FD491F901EA57FF4FC49187
:1002B000CC23A1F081110E941F01EC2FF0E0EE0F82
:1002C000FF1FE458FF4FA591B491EC91ED2381E01D
:1002D00090E009F480E0DF91CF91089580E090E014
:1002E000FACF1F93CF93DF93282F30E0F901E25527
:1002F000FF4F8491F901E656FF4FD491F901EA5777
:10030000FF4FC491CC23A9F0162F81110E941F0129
:10031000EC2FF0E0EE0FFF1FEE58FF4FA591B491C8
:100320008FB7F894EC91111108C0D095DE23DC93BF
:100330008FBFDF91CF911F910895DE2BF8CFCF9320
:10034000DF9390E0FC01E656FF4F24918A579F4FC0
:10035000FC0184918823C9F090E0880F991FFC016B
:10036000E859FF4FA591B491FC01EE58FF4FC5919C
:10037000D49161110DC09FB7F8948C912095822380
:100380008C938881282328839FBFDF91CF91089584
:10039000623051F49FB7F8943C91822F809583236B
:1003A0008C93E8812E2BEFCF8FB7F894EC912E2B06
:1003B0002C938FBFEACF862F642F0C949F01862F3A
:1003C000642F0C947101862F0C944801AF92BF9258
:1003D000CF92DF92EF92FF920F931F93CF93DF9311
:1003E0006C017B018B01040F151FEB015E01AE1840
:1003F000BF08C017D10759F06991D601ED91FC9162
:100400000190F081E02DC6010995892B79F7C5018E
:10041000DF91CF911F910F91FF90EF90DF90CF90E0
:10042000BF90AF900895FC01538D448D252F30E08F
:10043000842F90E0821B930B541710F0CF960895F1
:1004400001970895FC01918D828D981761F0A28D1E
:10045000AE0FBF2FB11D5D968C91928D9F5F9F73E4
:10046000928F90E008958FEF9FEF0895FC01918D9A
:10047000828D981731F0828DE80FF11D858D90E007
:1004800008958FEF9FEF0895FC01918D228D892FA4
:1004900090E0805C9F4F821B91098F73992708958C
:1004A00081E991E00E94440221E0892B09F420E0D7
:1004B000822F089580E090E0892B29F00E9450025D
:1004C00081110C9400000895FC01A48DA80FB92F90
:1004D000B11DA35ABF4F2C91848D90E001968F736C
:1004E0009927848FA689B7892C93A089B1898C918B
:1004F000837080648C93938D848D981306C00288DA
:10050000F389E02D80818F7D80830895EF92FF92A3
:100510000F931F93CF93DF93EC0181E0888F9B8D26
:100520008C8D98131AC0E889F989808185FF15C0E0
:100530009FB7F894EE89FF896083E889F989808103
:100540008370806480839FBF81E090E0DF91CF91D2
:100550001F910F91FF90EF900895F62E0B8D10E0F4
:100560000F5F1F4F0F731127E02E8C8D8E110CC063
:100570000FB607FCFACFE889F989808185FFF5CFAE
:10058000CE010E946402F1CFEB8DEC0FFD2FF11D27
:10059000E35AFF4FF0829FB7F8940B8FEA89FB89EB
:1005A00080818062CFCFCF93DF93EC01888D882349
:1005B000B9F0AA89BB89E889F9898C9185FD03C0C6
:1005C000808186FD0DC00FB607FCF7CF8C9185FFAB
:1005D000F2CF808185FFEDCFCE010E946402E9CF8A
:1005E000DF91CF910895089590E080E00895CF9332
:1005F000DF93D62FC42F682F81E991E00E948602F5
:100600006D2F81E991E00E9486026C2F81E991E0D3
:10061000DF91CF910C9486028F929F92AF92BF92FE
:100620000F931F93CF93DF93CDB7DEB7A1970FB68C
:10063000F894DEBF0FBECDBF19A2423008F44AE0E5
:100640008E010F5D1F4F842E912CB12CA12CA50182
:1006500094010E949709E62FB901CA01EA3044F5D6
:10066000E05DD801EE938D01232B242B252B79F708
:1006700090E080E0109769F0FD0101900020E9F71B
:100680003197AF014A1B5B0BBD018DE992E00E94DF
:10069000E601A1960FB6F894DEBF0FBECDBFDF9185
:1006A000CF911F910F91BF90AF909F908F90089521
:1006B000E95CD7CFFC0101900020E9F73197AF0149
:1006C000481B590BBC018DE992E00C94E601CF93D5
:1006D000DF93EC0160E08E810E94710161E08E8108
:1006E0000E94710160E08E810E9471018BE891E0AF
:1006F0000197F1F7DF91CF910895CF92DF92EF92BA
:10070000FF920F931F93CF93DF936C017C0187E0DF
:10071000E80EF11CD0E0C0E0062F10E0B8010C2E6E
:1007200002C0759567950A94E2F76170F7018191AF
:100730007F010E9471012196C430D10579F7C6016D
:10074000DF91CF911F910F91FF90EF90DF90CF90AD
:100750000C946703CF92DF92EF92FF920F931F9357
:10076000CF93DF93EC01F62E642F8C810E947101F0
:100770008D818F3F19F060E00E9471010F2D10E014
:100780008F8584FF25C06E0187E0C80ED11CF12C37
:10079000E12CB8010E2C02C0759567950A94E2F71A
:1007A0006170F60181916F010E947101FFEFEF1AF4
:1007B000FF0A88E0E816F10461F7CE01DF91CF91DE
:1007C0001F910F91FF90EF90DF90CF900C946703F3
:1007D000B80184E0759567958A95E1F7CE010E948E
:1007E0007D036F2DCE01DF91CF911F910F91FF906F
:1007F000EF90DF90CF900C947D03CF93DF93823006
:1008000029F49091AC0298609093AC028093B0026E
:100810001092B10280E48093B20280E18093B3022F
:1008200080E58093B40261E08091A1020E949F0163
:100830008091A2028F3F19F061E00E949F0161E068
:100840008091A3020E949F01CDE9D2E09E012D5923
:1008500032408091AC0284FD0BC084E090E0219690
:100860002817390744F461E08E810E949F01EECF82
:1008700088E090E0F4CF8BE39DE00197F1F760E032
:100880008091A1020E94710160E08091A3020E9408
:1008900071018091A2028F3F19F060E00E94710106
:1008A0006091AC0264FD45C063E08DE992E00E9476
:1008B0007D03CBE4D6E4CE010197F1F763E08DE947
:1008C00092E00E947D032197F1F763E08DE992E0C9
:1008D0000E947D0383E592E00197F1F762E08DE9E4
:1008E00092E00E947D036091AC02606240E08DE97D
:1008F00092E00E94AA0384E08093AD0240E06CE0A5
:100900008DE992E00E94AA0340E061E08DE992E067
:100910000E94AA038BE39FE10197F1F782E08093A5
:10092000AE0240E066E08DE992E0DF91CF910C9459
:10093000AA03606240E08DE992E00E94AA038BE482
:1009400096E40197F1F76091AC02606240E08DE9B6
:1009500092E00E94AA0383E592E00197F1F760918B
:10096000AC02606240E08DE992E00E94AA03BBCF36
:1009700041E00E94AA0381E090E00895CF92DF92C7
:10098000EF92FF926C01990FEE08FF08F7FE16C078
:1009900041E06DE28DE992E00E94AA036627772785
:1009A000CB016C197D098E099F094AE00E940C0356
:1009B0000196FF90EF90DF90CF9008954AE0C70135
:1009C000B601FF90EF90DF90CF900C940C0340E0C5
:1009D00061E08DE992E00E94AA038BE39FE1019719
:1009E000F1F7E0918401F0918501EC30F10508F018
:1009F0003BC0E350FB4F0C94B909090513051605DC
:100A000019051C051F052205250528052B052E05A2
:100A1000310582E491E00E945A0380910001909197
:100A200001010C94BE0487E491E0F5CF8DE491E0E0
:100A3000F2CF82E591E0EFCF88E591E0ECCF8DE554
:100A400091E0E9CF82E691E0E6CF88E691E0E3CF5E
:100A50008DE691E0E0CF83E791E0DDCF88E791E09C
:100A6000DACF8EE791E0D7CF0895209186013091BB
:100A70008701820F931F9093870180938601CC9604
:100A80006CE070E00E94830990938501809384015B
:100A900070930101609300010C94E7041F920F9280
:100AA0000FB60F9211242F933F938F939F93AF9381
:100AB000BF9380918D0190918E01A0918F01B09193
:100AC000900130918C0123E0230F2D3758F50196CA
:100AD000A11DB11D20938C0180938D0190938E01F7
:100AE000A0938F01B093900180918801909189012A
:100AF000A0918A01B0918B010196A11DB11D809337
:100B0000880190938901A0938A01B0938B01BF91D2
:100B1000AF919F918F913F912F910F900FBE0F90AA
:100B20001F90189526E8230F0296A11DB11DD2CF64
:100B30001F920F920FB60F9211242F933F934F9352
:100B40005F936F937F938F939F93AF93BF93EF9335
:100B5000FF9381E991E00E946402FF91EF91BF91C0
:100B6000AF919F918F917F916F915F914F913F9145
:100B70002F910F900FBE0F901F9018951F920F92FC
:100B80000FB60F9211242F938F939F93EF93FF93A0
:100B9000E091A101F091A2018081E091A701F09183
:100BA000A80182FD1BC090818091AA018F5F8F7385
:100BB0002091AB01821741F0E091AA01F0E0EF56DD
:100BC000FE4F958F8093AA01FF91EF919F918F9196
:100BD0002F910F900FBE0F901F9018958081F4CF2A
:100BE000109294011092930188EE93E0A0E0B0E09F
:100BF0008093950190939601A0939701B0939801EB
:100C000086E191E0909392018093910185EC90E0D0
:100C100090939E0180939D0184EC90E09093A001BD
:100C200080939F0180EC90E09093A2018093A101BA
:100C300081EC90E09093A4018093A30182EC90E07A
:100C40009093A6018093A50186EC90E09093A80173
:100C50008093A7011092AA011092AB011092AC01EF
:100C60001092AD011092A00210929F0282E391E0D7
:100C700090939E0280939D028CE08093A1028FEF5F
:100C80008093A2028EE08093A3028FE08093A4025F
:100C900080E18093A50281E18093A60282E18093A6
:100CA000A7021092A8021092A9021092AA02109212
:100CB000AB021092AC0281E00E94FD031092300260
:100CC00010923402109233021092350288E291E0C1
:100CD00090932F0280932E02EAE4F2E010821482B5
:100CE00013821582369682E0E638F807B9F78EE36C
:100CF00091E090939102809390028AE391E0909327
:100D000093028093920284E08093940280939502F0
:100D100082E091E090938F0280938E028AE090E0CF
:100D2000909397028093960284EF91E090939902BA
:100D30008093980210929C0210929B0210928A0259
:100D400010928B0210928C0210928D0210929A02D5
:100D50000895789484B5826084BD84B5816084BD33
:100D600085B5826085BD85B5816085BD80916E0049
:100D7000816080936E00109281008091810082607A
:100D800080938100809181008160809381008091B7
:100D900080008160809380008091B10084608093A6
:100DA000B1008091B00081608093B00080917A00A2
:100DB000846080937A0080917A00826080937A00C8
:100DC00080917A00816080937A0080917A008068B7
:100DD00080937A001092C100E091A101F091A201EC
:100DE00082E08083E0919D01F0919E011082E0916C
:100DF0009F01F091A0018FEC80831092A901E091F6
:100E0000A501F091A60186E08083E091A301F09115
:100E1000A401808180618083E091A301F091A4010D
:100E2000808188608083E091A301F091A40180819A
:100E300080688083E091A301F091A40180818F7D7F
:100E4000808382E00E94FD030E94E704412C512C24
:100E50003201439488248A94982C50E0C52E50E0A7
:100E6000D52E8FB7F89440918D0150918E016091ED
:100E70008F01709190018FBF80918A0290918B02B7
:100E8000A0918C02B0918D02481B590B6A0B7B0B11
:100E90008091960290919702B0E0A0E084179507A8
:100EA000A607B70708F0C0C1C0E080919402C81738
:100EB00060F4E0919002F0919102EC0FF11D62E07C
:100EC00080810E949F01CF5FF0CF312C80919502ED
:100ED000381608F05FC0032D10E0E0919202F09107
:100EE0009302E00FF11F61E080810E949F01E09179
:100EF0009202F0919302E00FF11F60E080810E9466
:100F00007101D301C201032C04C0880F991FAA1FCD
:100F1000BB1F0A94D2F75C017C01E094F094212C71
:100F2000809194022816F8F4C22DD0E0E09190024E
:100F3000F0919102EC0FFD1F80810E9448012496E0
:100F4000CC0FDD1FC25DDD4F892B41F48881998173
:100F50008A299B29998388832394E2CF8881998168
:100F60008E219F21F7CFE0919202F0919302E00F42
:100F7000F11F61E080810E94710180919202909145
:100F80009302080F191F60E0D8018C910E949F0105
:100F900033949CCF0EE212E0E8018F8D98A1892B4B
:100FA00021F41C8E9E8E8D8E19A22696EAE6F2E022
:100FB000EC17FD0791F7B12C80919402B81608F058
:100FC00053C0A12CEB2CF12CEE0CFF1CC7018A5C4A
:100FD0009D4F7C0120919502A21608F043C0D701D5
:100FE0006D917C910A2C02C0769567950A94E2F780
:100FF000B29E900111242A0D311DEEE2F2E080E054
:10100000458D568D2417350709F47BC18F5F3696C1
:101010008A30B1F760FF24C0EEE2F2E090E080E0B9
:10102000448D411118C0E0918E02F0918F02E20FC1
:10103000F31F4081B6E0B89FF001B99FF00D112475
:10104000E25DFD4F448F368F258F10A2178E61E031
:101050000E94AF0005C0019636968A30910501F7CF
:10106000A394B8CFB394A8CFEEE2F2E080E091A1D0
:101070009111892F3696CE17DF07C9F79FB7F894DD
:1010800040918D0150918E0160918F01709190017E
:101090009FBF40938A0250938B0260938C0270939F
:1010A0008D02882309F4C0C0F80181A1882309F4C6
:1010B000B4C0878D90A1019709F035C0E48DE3524B
:1010C000E23208F030C00E2E000CFF0BE659F74F4D
:1010D0000C94B909F60893089308930893089308A9
:1010E0009308FE0893089308930893089308FA0856
:1010F0008C08CA08CE08D608DA08DE08E608EA082E
:10110000EE089308930893089308930893089308AC
:10111000D208E208F208020960918601645C4FE798
:1011200080E90E94F702D8015F968D919C9190977B
:10113000039709F072C05C96EC91E352E23208F03A
:101140006CC00E2E000CFF0BE855F74F0C94B9093C
:101150005E090D090D090D090D090D090D09660935
:101160000D090D090D090D090D096209060932095C
:1011700036093E09420946094E09520956090D0928
:101180000D090D090D090D090D090D093A094A0945
:101190005A096A0960918601635CC1CF609186013A
:1011A000625CBDCF60918601615CB9CF60918601C0
:1011B000605CB5CF609186016F5BB1CF60918601B5
:1011C0006E5BADCF609186016D5BA9CF60918601AA
:1011D0006C5BA5CF609186016B5BA1CF60918601AE
:1011E0006A5B9DCF60918601695B99CF60918601B2
:1011F000685B95CF60918601675B91CF60918601B6
:10120000665B8DCF60918601655B89CF60918601B9
:10121000645C40E080E80E94F7020A5F1F4FB2E082
:101220000E381B0709F040CF81E991E00E9444028B
:10123000892B61F081E991E00E942202843509F452
:1012400057C00CF04BC08F3409F458C0C114D104FE
:1012500009F407CE0E945002882309F402CE0E94AE
:101260000000FFCD60918601635CD3CF6091860161
:10127000625CCFCF60918601615CCBCF60918601CB
:10128000605CC7CF609186016F5BC3CF60918601C0
:101290006E5BBFCF609186016D5BBBCF60918601B5
:1012A0006C5BB7CF609186016B5BB3CF60918601B9
:1012B0006A5BAFCF60918601695BABCF60918601BD
:1012C000685BA7CF60918601675BA3CF60918601C1
:1012D000665B9FCF60918601655B9BCF8F3659F02F
:1012E000843709F0B3CF8FEF9FEF0E943505AECF63
:1012F00081E090E0FACF84EF9FEFF7CF8CE090E0B1
:10130000F4CF6170A5CE97FB072E16F4009407D09A
:1013100077FD09D00E94BF0907FC05D03EF49095E7
:1013200081959F4F0895709561957F4F0895A1E233
:101330001A2EAA1BBB1BFD010DC0AA1FBB1FEE1F4F
:10134000FF1FA217B307E407F50720F0A21BB30B9A
:10135000E40BF50B661F771F881F991F1A9469F716
:1013600060957095809590959B01AC01BD01CF0172
:101370000895EE0FFF1F0590F491E02D0994AA1B2C
:10138000BB1B51E107C0AA1FBB1FA617B70710F070
:10139000A61BB70B881F991F5A95A9F780959095A2
:0A13A000BC01CD010895F894FFCFC1
:1013AA000500313233413435364237383943233038
:1013BA002A44000000008602E6011302D302440216
:1013CA002202360200000000DB01DF01E301000017
:1013DA000000B804E601F402F302070605040B0A4A
:1013EA00090843202F20004323202F200044202FC8
:1013FA0020004423202F200045202F200046202FA4
:10140A0020004623202F200047202F20004723209A
:10141A002F200041202F20004123202F200042208E
:04142A002F2000006F
:00000001FF
