:100000000C9462000C948A000C948A000C948A0070
:100010000C948A000C948A000C948A000C948A0038
:100020000C948A000C948A000C948A000C948A0028
:100030000C948A000C948A000C948A000C948A0018
:100040000C945D030C948A000C94CD030C94A703CC
:100050000C948A000C948A000C948A000C948A00F8
:100060000C948A000C948A000000000024002700F1
:100070002A0000000000250028002B0000000000DE
:1000800023002600290004040404040404040202DA
:100090000202020203030303030301020408102007
:1000A0004080010204081020010204081020000012
:1000B0000008000201000003040700000000000027
:1000C0000000FF0311241FBECFEFD8E0DEBFCDBF7D
:1000D00011E0A0E0B1E0E0E8FEE002C005900D9282
:1000E000AE33B107D9F722E0AEE3B1E001C01D9213
:1000F000A335B207E1F710E0C2E6D0E004C02197D3
:10010000FE010E943807C136D107C9F70E948C044E
:100110000C943E070C94000096E0899FD0011124B6
:10012000AC51BE4F90967C936E935F9791E0919601
:100130009C939197E0915102F0915202909150025C
:10014000992339F0309751F0811108C08091000255
:100150000994309719F05C968C91FACF0895CF925C
:10016000DF92EF92FF920F931F9396E0899FF00129
:100170001124EC51FE4F11A2278D30A12130310501
:1001800051F178F02230310509F451C023303105A6
:1001900009F452C01F910F91FF90EF90DF90CF9024
:1001A00008956623B9F361E070E00E948C002FB7D8
:1001B000F8948091430190914401A0914501B09140
:1001C00046012FBF80933C0290933D02A0933E02D4
:1001D000B0933F02DFCF9FB7F894C0904301D09017
:1001E0004401E0904501F09046019FBF00913C0220
:1001F00010913D0220913E0230913F02C01AD10A77
:10020000E20AF30A00914E0210914F0230E020E022
:100210000C151D052E053F0550F462E070E01F919E
:100220000F91FF90EF90DF90CF900C948C006111B4
:10023000B1CF63E070E0F3CF70E060E0F0CF8330E7
:1002400081F028F4813099F08230A9F00895873048
:10025000A9F08830C9F08430B1F4809180008F7D9E
:1002600003C0809180008F7780938000089584B5CB
:100270008F7784BD089584B58F7DFBCF8091B000CA
:100280008F778093B00008958091B0008F7DF9CF73
:10029000CF93DF93282F30E0F901E255FF4F84918F
:1002A000F901E656FF4FD491F901EA57FF4FC49187
:1002B000CC23A1F081110E941F01EC2FF0E0EE0F82
:1002C000FF1FE458FF4FA591B491EC91ED2381E01D
:1002D00090E009F480E0DF91CF91089580E090E014
:1002E000FACF1F93CF93DF93282F30E0F901E25527
:1002F000FF4F8491F901E656FF4FD491F901EA5777
:10030000FF4FC491CC23A9F0162F81110E941F0129
:10031000EC2FF0E0EE0FFF1FEE58FF4FA591B491C8
:100320008FB7F894EC91111108C0D095DE23DC93BF
:100330008FBFDF91CF911F910895DE2BF8CFCF9320
:10034000DF9390E0FC01E656FF4F24918A579F4FC0
:10035000FC0184918823C9F090E0880F991FFC016B
:10036000E859FF4FA591B491FC01EE58FF4FC5919C
:10037000D49161110DC09FB7F8948C912095822380
:100380008C938881282328839FBFDF91CF91089584
:10039000623051F49FB7F8943C91822F809583236B
:1003A0008C93E8812E2BEFCF8FB7F894EC912E2B06
:1003B0002C938FBFEACF862F642F0C949F01862F3A
:1003C000642F0C947101862F0C944801AF92BF9258
:1003D000CF92DF92EF92FF920F931F93CF93DF9311
:1003E0006C017B018B01040F151FEB015E01AE1840
:1003F000BF08C017D10759F06991D601ED91FC9162
:100400000190F081E02DC6010995892B79F7C5018E
:10041000DF91CF911F910F91FF90EF90DF90CF90E0
:10042000BF90AF900895FC01538D448D252F30E08F
:10043000842F90E0821B930B541710F0CF960895F1
:1004400001970895FC01918D828D981761F0A28D1E
:10045000AE0FBF2FB11D5D968C91928D9F5F9F73E4
:10046000928F90E008958FEF9FEF0895FC01918D9A
:10047000828D981731F0828DE80FF11D858D90E007
:1004800008958FEF9FEF0895FC01918D228D892FA4
:1004900090E0805C9F4F821B91098F73992708958C
:1004A00087E491E00E94440221E0892B09F420E0D6
:1004B000822F089580E090E0892B29F00E9450025D
:1004C00081110C9400000895FC01A48DA80FB92F90
:1004D000B11DA35ABF4F2C91848D90E001968F736C
:1004E0009927848FA689B7892C93A089B1898C918B
:1004F000837080648C93938D848D981306C00288DA
:10050000F389E02D80818F7D80830895EF92FF92A3
:100510000F931F93CF93DF93EC0181E0888F9B8D26
:100520008C8D98131AC0E889F989808185FF15C0E0
:100530009FB7F894EE89FF896083E889F989808103
:100540008370806480839FBF81E090E0DF91CF91D2
:100550001F910F91FF90EF900895F62E0B8D10E0F4
:100560000F5F1F4F0F731127E02E8C8D8E110CC063
:100570000FB607FCFACFE889F989808185FFF5CFAE
:10058000CE010E946402F1CFEB8DEC0FFD2FF11D27
:10059000E35AFF4FF0829FB7F8940B8FEA89FB89EB
:1005A00080818062CFCFCF93DF93EC01888D882349
:1005B000B9F0AA89BB89E889F9898C9185FD03C0C6
:1005C000808186FD0DC00FB607FCF7CF8C9185FFAB
:1005D000F2CF808185FFEDCFCE010E946402E9CF8A
:1005E000DF91CF910895CF92DF92EF92FF920F9318
:1005F0001F93CF93DF93CDB7DEB7A1970FB6F894D3
:10060000DEBF0FBECDBF162F042F682F87E491E009
:100610000E948602612F87E491E00E948602602F8B
:1006200087E491E00E94860246E050E064E371E0D6
:1006300087E491E00E94E601212F30E050E040E0A5
:1006400019A28E010F5D1F4F8AE0C82ED12CE12C1C
:10065000F12CCA01B901A70196010E941607605D3D
:10066000F80162938F01211531054105510589F784
:10067000309761F001900020E9F73197AF01401BFE
:10068000510BB80187E491E00E94E60141E050E09F
:100690006BE371E087E491E00E94E601A1960FB65A
:1006A000F894DEBF0FBECDBFDF91CF911F910F91A8
:1006B000FF90EF90DF90CF9008951F920F920FB6AA
:1006C0000F9211242F933F938F939F93AF93BF93D8
:1006D0008091430190914401A0914501B091460160
:1006E0003091420123E0230F2D3758F50196A11DCB
:1006F000B11D209342018093430190934401A09344
:100700004501B093460180913E0190913F01A09137
:100710004001B09141010196A11DB11D80933E01A0
:1007200090933F01A0934001B0934101BF91AF91DD
:100730009F918F913F912F910F900FBE0F901F901F
:10074000189526E8230F0296A11DB11DD2CF1F9246
:100750000F920FB60F9211242F933F934F935F93F5
:100760006F937F938F939F93AF93BF93EF93FF9379
:1007700087E491E00E946402FF91EF91BF91AF91F5
:100780009F918F917F916F915F914F913F912F91A9
:100790000F900FBE0F901F9018951F920F920FB6DB
:1007A0000F9211242F938F939F93EF93FF93E091D8
:1007B0005701F09158018081E0915D01F0915E0157
:1007C00082FD1BC09081809160018F5F8F732091AB
:1007D0006101821741F0E0916001F0E0E95BFE4FBA
:1007E000958F80936001FF91EF919F918F912F9151
:1007F0000F900FBE0F901F9018958081F4CF10922C
:100800004A011092490188EE93E0A0E0B0E08093A5
:100810004B0190934C01A0934D01B0934E0184E1A4
:1008200091E0909348018093470185EC90E090938C
:1008300054018093530184EC90E09093560180938F
:10084000550180EC90E0909358018093570181EC22
:1008500090E090935A018093590182EC90E090933C
:100860005C0180935B0186EC90E090935E01809345
:100870005D0110926001109261011092620110926C
:1008800063011092E6011092EA011092E9011092C0
:10089000EB0186E291E09093E5018093E401E0E0D2
:1008A000F2E01082148213821582369682E0EC33D5
:1008B000F807B9F780E391E09093470280934602EE
:1008C0008CE291E0909349028093480284E0809307
:1008D0004A0280934B0280E091E09093450280931E
:1008E00044028AE090E090934D0280934C0284EFA2
:1008F00091E090934F0280934E0210925202109218
:100900005102109240021092410210924202109243
:100910004302109250020895789484B5826084BD99
:1009200084B5816084BD85B5826085BD85B58160F3
:1009300085BD80916E00816080936E001092810071
:10094000809181008260809381008091810081602C
:1009500080938100809180008160809380008091ED
:10096000B10084608093B1008091B0008160809379
:10097000B00080917A00846080937A0080917A0040
:10098000826080937A0080917A00816080937A00FF
:1009900080917A00806880937A001092C100E09183
:1009A0005701F091580182E08083E0915301F0916A
:1009B00054011082E0915501F09156018FEC808333
:1009C00010925F01E0915B01F0915C0186E0808311
:1009D000E0915901F0915A01808180618083E0911A
:1009E0005901F0915A01808188608083E09159011A
:1009F000F0915A01808180688083E0915901F091E3
:100A00005A0180818F7D8083412C512C3201439487
:100A100088248A94982C50E0C52E50E0D52E8FB7AC
:100A2000F8944091430150914401609145017091C7
:100A300046018FBF8091400290914102A0914202F5
:100A4000B0914302481B590B6A0B7B0B80914C02FF
:100A500090914D02B0E0A0E084179507A607B70774
:100A600008F0A9C1C0E080914A02C81760F4E09183
:100A70004602F0914702EC0FF11D62E080810E9476
:100A80009F01CF5FF0CF312C80914B02381608F0D8
:100A90005FC0032D10E0E0914802F0914902E00FA1
:100AA000F11F61E080810E949F01E0914802F09176
:100AB0004902E00FF11F60E080810E947101D301C3
:100AC000C201032C04C0880F991FAA1FBB1F0A94E0
:100AD000D2F75C017C01E094F094212C80914A02D1
:100AE0002816F8F4C22DD0E0E0914602F0914702BA
:100AF000EC0FFD1F80810E9448012496CC0FDD1F62
:100B0000CC51DE4F892B41F4888199818A299B2918
:100B1000998388832394E2CF888199818E219F21B4
:100B2000F7CFE0914802F0914902E00FF11F61E038
:100B300080810E9471018091480290914902080FC2
:100B4000191F60E0F80180810E949F0133949CCFBF
:100B5000C4EED1E08E01F801878D90A1892B21F49C
:100B6000148E968E858E11A20A5F1F4F80E292E04E
:100B70008017910781F7B12C80914A02B81608F0CE
:100B800053C0A12CEB2CF12CEE0CFF1CF701E4510F
:100B9000FE4F7F0120914B02A21608F043C0F701DF
:100BA000608171810A2C02C0769567950A94E2F7FC
:100BB000B29E900111242A0D311DE4EEF1E080E097
:100BC000458D568D2417350709F42EC18F5F369653
:100BD0008A30B1F760FF24C0E4EEF1E090E080E0FD
:100BE000448D411118C0E0914402F0914502E20F9A
:100BF000F31F408156E0589FF001599FF00D1124DA
:100C0000EC51FE4F448F368F258F10A2178E61E076
:100C10000E94AF0005C0019636968A30910501F713
:100C2000A394B8CFB394A8CFE4EEF1E080E091A113
:100C30009111892F36960E171F07C9F79FB7F894A1
:100C400040914301509144016091450170914601EA
:100C50009FBF4093400250934102609342027093C1
:100C60004302882309F4A7C089A1882309F49DC001
:100C70008F8D98A1019709F033C0EC8DE352E232D9
:100C800008F02EC00E2E000CFF0BE75BF94F0C9402
:100C90003807C40670067006700670067006700687
:100CA000CA0670067006700670067006C7066B06E8
:100CB000A306A606AC06AF06B206B806BB06BE067D
:100CC0007006700670067006700670067006A9063B
:100CD000B506C106CD064FE76CE380E90E94F3023A
:100CE0008F8D98A1039709F060C0EC8DE352E2323A
:100CF00008F05BC00E2E000CFF0BEF57F94F0C9461
:100D000038070807D506D506D506D506D506D50673
:100D10000E07D506D506D506D506D5060B07D0068F
:100D2000E706EA06F006F306F606FC06FF060207EB
:100D3000D506D506D506D506D506D506D506ED06C3
:100D4000F906050711074FE76DE3C7CF4FE76EE3DD
:100D5000C4CF4FE76FE3C1CF4FE760E4BECF4FE7AB
:100D600061E4BBCF4FE762E4B8CF4FE763E4B5CFB0
:100D70004FE764E4B2CF4FE765E4AFCF4FE766E4F7
:100D8000ACCF4FE767E4A9CF4FE768E4A6CF4FE7C2
:100D900069E4A3CF4FE76AE4A0CF4FE76BE49DCFB0
:100DA00040E06CE380E80E94F302269682E0C434BF
:100DB000D80709F059CFC114D10409F430CE0E94EC
:100DC0005002882309F42BCE0E94000028CE40E078
:100DD0006DE3E8CF40E06EE3E5CF40E06FE3E2CFC4
:100DE00040E060E4DFCF40E061E4DCCF40E062E47B
:100DF000D9CF40E063E4D6CF40E064E4D3CF40E015
:100E000065E4D0CF40E066E4CDCF40E067E4CACFF0
:100E100040E068E4C7CF40E069E4C4CF40E06AE462
:100E2000C1CF40E06BE4BECF6170F2CEA1E21A2EDA
:100E3000AA1BBB1BFD010DC0AA1FBB1FEE1FFF1F7E
:100E4000A217B307E407F50720F0A21BB30BE40BCE
:100E5000F50B661F771F881F991F1A9469F7609515
:100E60007095809590959B01AC01BD01CF010895CF
:100E7000EE0FFF1F0590F491E02D0994F894FFCF39
:100E800031323341343536423738394323302A44FE
:100E9000000000008602E6011302D302440222028F
:100EA000360200000000DB01DF01E3010706050454
:0E0EB0000B0A09084E6F74613A20000A000018
:00000001FF
