:100000000C9462000C948A000C948A000C948A0070
:100010000C948A000C948A000C948A000C948A0038
:100020000C948A000C948A000C948A000C948A0028
:100030000C948A000C948A000C948A000C948A0018
:100040000C9492050C948A000C9402060C94DC0526
:100050000C948A000C948A000C948A000C948A00F8
:100060000C948A000C948A000000000024002700F1
:100070002A0000000000250028002B0000000000DE
:1000800023002600290004040404040404040202DA
:100090000202020203030303030301020408102007
:1000A0004080010204081020010204081020000012
:1000B0000008000201000003040700000000000027
:1000C0000000340611241FBECFEFD8E0DEBFCDBF45
:1000D00011E0A0E0B1E0EAEBF4E102C005900D927E
:1000E000AE38B107D9F722E0AEE8B1E001C01D9209
:1000F000AF3BB207E1F710E0C2E6D0E004C02197C1
:10010000FE010E94410AC136D107C9F70E94ED06DF
:100110000C945B0A0C94000096E0899FD001112496
:10012000A85CBD4F90967C936E935F9791E09196FB
:100130009C939197E091A502F091A6029091A40260
:10014000992339F0309751F0811108C08091540201
:100150000994309719F05C968C91FACF0895CF925C
:10016000DF92EF92FF920F931F9396E0899FF00129
:100170001124E85CFD4F11A2278D30A121303105FB
:1001800051F178F02230310509F451C023303105A6
:1001900009F452C01F910F91FF90EF90DF90CF9024
:1001A00008956623B9F361E070E00E948C002FB7D8
:1001B000F8948091970190919801A0919901B09144
:1001C0009A012FBF8093900290939102A093920284
:1001D000B0939302DFCF9FB7F894C0909701D0906F
:1001E0009801E0909901F0909A019FBF00919002D0
:1001F000109191022091920230919302C01AD10A7B
:10020000E20AF30A0091A2021091A30230E020E07A
:100210000C151D052E053F0550F462E070E01F919E
:100220000F91FF90EF90DF90CF900C948C006111B4
:10023000B1CF63E070E0F3CF70E060E0F0CF8330E7
:1002400081F028F4813099F08230A9F00895873048
:10025000A9F08830C9F08430B1F4809180008F7D9E
:1002600003C0809180008F7780938000089584B5CB
:100270008F7784BD089584B58F7DFBCF8091B000CA
:100280008F778093B00008958091B0008F7DF9CF73
:10029000CF93DF93282F30E0F901E255FF4F84918F
:1002A000F901E656FF4FD491F901EA57FF4FC49187
:1002B000CC23A1F081110E941F01EC2FF0E0EE0F82
:1002C000FF1FE458FF4FA591B491EC91ED2381E01D
:1002D00090E009F480E0DF91CF91089580E090E014
:1002E000FACF1F93CF93DF93282F30E0F901E25527
:1002F000FF4F8491F901E656FF4FD491F901EA5777
:10030000FF4FC491CC23A9F0162F81110E941F0129
:10031000EC2FF0E0EE0FFF1FEE58FF4FA591B491C8
:100320008FB7F894EC91111108C0D095DE23DC93BF
:100330008FBFDF91CF911F910895DE2BF8CFCF9320
:10034000DF9390E0FC01E656FF4F24918A579F4FC0
:10035000FC0184918823C9F090E0880F991FFC016B
:10036000E859FF4FA591B491FC01EE58FF4FC5919C
:10037000D49161110DC09FB7F8948C912095822380
:100380008C938881282328839FBFDF91CF91089584
:10039000623051F49FB7F8943C91822F809583236B
:1003A0008C93E8812E2BEFCF8FB7F894EC912E2B06
:1003B0002C938FBFEACF3FB7F8948091930190912F
:1003C0009401A0919501B091960126B5A89B05C016
:1003D0002F3F19F00196A11DB11D3FBFBA2FA92FC4
:1003E000982F8827BC01CD01620F711D811D911DC1
:1003F00042E0660F771F881F991F4A95D1F708952D
:10040000862F642F0C949F01862F642F0C9471010A
:10041000862F0C944801AF92BF92CF92DF92EF9259
:10042000FF920F931F93CF93DF936C017B018B019E
:10043000040F151FEB015E01AE18BF08C017D107EE
:1004400059F06991D601ED91FC910190F081E02D78
:10045000C6010995892B79F7C501DF91CF911F91CD
:100460000F91FF90EF90DF90CF90BF90AF900895E5
:10047000FC01538D448D252F30E0842F90E0821BAA
:10048000930B541710F0CF96089501970895FC012F
:10049000918D828D981761F0A28DAE0FBF2FB11D87
:1004A0005D968C91928D9F5F9F73928F90E00895DF
:1004B0008FEF9FEF0895FC01918D828D981731F099
:1004C000828DE80FF11D858D90E008958FEF9FEFED
:1004D0000895FC01918D228D892F90E0805C9F4FC3
:1004E000821B91098F73992708958BE991E00E94EF
:1004F000690221E0892B09F420E0822F089580E031
:1005000090E0892B29F00E94750281110C94000063
:100510000895FC01A48DA80FB92FB11DA35ABF4F98
:100520002C91848D90E001968F739927848FA689F2
:10053000B7892C93A089B1898C91837080648C9346
:10054000938D848D981306C00288F389E02D8081F5
:100550008F7D80830895EF92FF920F931F93CF9327
:10056000DF93EC0181E0888F9B8D8C8D98131AC0EE
:10057000E889F989808185FF15C09FB7F894EE89D5
:10058000FF896083E889F989808183708064808332
:100590009FBF81E090E0DF91CF911F910F91FF907D
:1005A000EF900895F62E0B8D10E00F5F1F4F0F7325
:1005B0001127E02E8C8D8E110CC00FB607FCFACFE0
:1005C000E889F989808185FFF5CFCE010E948902F3
:1005D000F1CFEB8DEC0FFD2FF11DE35AFF4FF082B1
:1005E0009FB7F8940B8FEA89FB8980818062CFCF17
:1005F000CF93DF93EC01888D8823B9F0AA89BB895A
:10060000E889F9898C9185FD03C0808186FD0DC044
:100610000FB607FCF7CF8C9185FFF2CF808185FF65
:10062000EDCFCE010E948902E9CFDF91CF910895ED
:10063000089590E080E00895CF93DF93D62FC42FE4
:10064000682F8BE991E00E94AB026D2F8BE991E05E
:100650000E94AB026C2F8BE991E0DF91CF910C945B
:10066000AB02CF93DF93EC0160E08E810E947101B9
:1006700061E08E810E94710160E08E810E947101B3
:100680008BE891E00197F1F7DF91CF910895CF9238
:10069000DF92EF92FF920F931F93CF93DF936C0142
:1006A0007C0187E0E80EF11CD0E0C0E0062F10E0EE
:1006B000B8010C2E02C0759567950A94E2F7617037
:1006C000F70181917F010E9471012196C430D1050B
:1006D00079F7C601DF91CF911F910F91FF90EF90B5
:1006E000DF90CF900C943103CF92DF92EF92FF9284
:1006F0000F931F93CF93DF93EC01F62E642F8C8121
:100700000E9471018D818F3F19F060E00E9471019C
:100710000F2D10E08F8584FF25C06E0187E0C80E85
:10072000D11CF12CE12CB8010E2C02C075956795F7
:100730000A94E2F76170F60181916F010E947101E4
:10074000FFEFEF1AFF0A88E0E816F10461F7CE0127
:10075000DF91CF911F910F91FF90EF90DF90CF909D
:100760000C943103B80184E0759567958A95E1F79B
:10077000CE010E9447036F2DCE01DF91CF911F91D3
:100780000F91FF90EF90DF90CF900C944703CF93A1
:10079000DF93823029F49091B60298609093B6026C
:1007A0008093BA021092BB0280E48093BC0280E185
:1007B0008093BD0280E58093BE0261E08091AB0230
:1007C0000E949F018091AC028F3F19F061E00E946E
:1007D0009F0161E08091AD020E949F01C7EAD2E0D3
:1007E0009E01275A32408091B60284FD0BC084E0FE
:1007F00090E021962817390744F461E08E810E9429
:100800009F01EECF88E090E0F4CF8BE39DE001976D
:10081000F1F760E08091AB020E94710160E080918D
:10082000AD020E9471018091AC028F3F19F060E02F
:100830000E9471016091B60264FD45C063E087EAE1
:1008400092E00E944703CBE4D6E4CE010197F1F792
:1008500063E087EA92E00E9447032197F1F763E0A3
:1008600087EA92E00E94470383E592E00197F1F75F
:1008700062E087EA92E00E9447036091B6026062FC
:1008800040E087EA92E00E94740384E08093B7021C
:1008900040E06CE087EA92E00E94740340E061E08F
:1008A00087EA92E00E9474038BE39FE10197F1F7DE
:1008B00082E08093B80240E066E087EA92E0DF9150
:1008C000CF910C947403606240E087EA92E00E944A
:1008D00074038BE496E40197F1F76091B6026062CD
:1008E00040E087EA92E00E94740383E592E001977A
:1008F000F1F76091B602606240E087EA92E00E9400
:100900007403BBCF41E00E94740381E090E008953E
:10091000FB0101900020E9F73197AF01461B570B0F
:10092000DC01ED91FC910280F381E02D09948F921E
:100930009F92AF92BF92CF92DF92EF92FF92CF93AE
:10094000DF93CDB7DEB7A1970FB6F894DEBF0FBE29
:10095000CDBF6C01990FEE08FF08F7FE40C041E0E3
:100960006DE287EA92E00E94740322273327A901EF
:100970002C193D094E095F0919A2CE0181967C010F
:100980009AE0892E912CA12CB12CCA01B901A501A4
:1009900094010E941F0A605DF70162937F01211597
:1009A00031054105510589F790E080E0309729F045
:1009B000BF0187EA92E00E9488040196A1960FB6D3
:1009C000F894DEBF0FBECDBFDF91CF91FF90EF90C7
:1009D000DF90CF90BF90AF909F908F900895A70128
:1009E000960119A2CE0181967C018AE0882E912C75
:1009F000A12CB12CCA01B901A50194010E941F0AC2
:100A0000605DF70162937F012115310541055105B4
:100A100089F790E080E0309789F2BF0187EA92E0A1
:100A20000E948804CBCFBC0187EA92E00C94880432
:100A300040E061E087EA92E00E9474038BE39FE16B
:100A40000197F1F7E0918E01F0918F01EC30F10503
:100A500008F03BC0E25DFA4F0C94410A3A054405A8
:100A600047054A054D0550055305560559055C05D2
:100A70005F05620583E491E00E9413058091000107
:100A8000909101010C94970488E491E0F5CF8EE4F5
:100A900091E0F2CF83E591E0EFCF89E591E0ECCFF3
:100AA0008EE591E0E9CF83E691E0E6CF89E691E03B
:100AB000E3CF8EE691E0E0CF84E791E0DDCF89E7F8
:100AC00091E0DACF8FE791E0D7CF089520919001A0
:100AD00030919101820F931F909391018093900127
:100AE000CC966CE070E00E940B0A90938F0180938B
:100AF0008E0170930101609300010C941805CF934F
:100B0000DF93BC018BE991E00E948804EC0164E86A
:100B100071E08BE991E00E9488048C0F9D1FDF91AA
:100B2000CF9108951F920F920FB60F9211242F9319
:100B30003F938F939F93AF93BF9380919701909131
:100B40009801A0919901B0919A013091920123E00E
:100B5000230F2D3758F50196A11DB11D2093920149
:100B60008093970190939801A0939901B0939A0173
:100B70008091930190919401A0919501B09196017B
:100B80000196A11DB11D8093930190939401A093B0
:100B90009501B0939601BF91AF919F918F913F9135
:100BA0002F910F900FBE0F901F90189526E8230FDE
:100BB0000296A11DB11DD2CF1F920F920FB60F92B8
:100BC00011242F933F934F935F936F937F938F9352
:100BD0009F93AF93BF93EF93FF938BE991E00E94B4
:100BE0008902FF91EF91BF91AF919F918F917F917A
:100BF0006F915F914F913F912F910F900FBE0F908A
:100C00001F9018951F920F920FB60F9211242F93D9
:100C10008F939F93EF93FF93E091AB01F091AC0121
:100C20008081E091B101F091B20182FD1BC0908101
:100C30008091B4018F5F8F732091B501821741F0CD
:100C4000E091B401F0E0E556FE4F958F8093B4013A
:100C5000FF91EF919F918F912F910F900FBE0F9069
:100C60001F9018958081F4CF10929E0110929D01E3
:100C700088EE93E0A0E0B0E080939F019093A00104
:100C8000A093A101B093A20187E191E090939C0110
:100C900080939B0185EC90E09093A8018093A7013D
:100CA00084EC90E09093AA018093A90180EC90E0FD
:100CB0009093AC018093AB0181EC90E09093AE01F6
:100CC0008093AD0182EC90E09093B0018093AF01EE
:100CD00086EC90E09093B2018093B1011092B40140
:100CE0001092B5011092B6011092B7011092AA02AB
:100CF0001092A90283E391E09093A8028093A70247
:100D00008CE08093AB028FEF8093AC028EE08093F7
:100D1000AD028FE08093AE0280E18093AF0281E16B
:100D20008093B00282E18093B1021092B2021092DD
:100D3000B3021092B4021092B5021092B60281E092
:100D40000E94C70310923A0210923E0210923D0296
:100D500010923F0289E291E0909339028093380229
:100D6000E4E5F2E01082148213821582369682E066
:100D7000E039F807B9F78FE391E090939B028093F5
:100D80009A028BE391E090939D0280939C0284E011
:100D900080939E0280939F0283E091E0909399025A
:100DA000809398028AE090E09093A1028093A00241
:100DB00084EF91E09093A3028093A2021092A60286
:100DC0001092A5021092940210929502109296022F
:100DD000109297021092A4020895789484B58260CC
:100DE00084BD84B5816084BD85B5826085BD85B5CF
:100DF000816085BD80916E00816080936E0010924D
:100E000081008091810082608093810080918100C7
:100E10008160809381008091800081608093800058
:100E20008091B10084608093B1008091B0008160B6
:100E30008093B00080917A00846080937A008091E2
:100E40007A00826080937A0080917A00816080933A
:100E50007A0080917A00806880937A001092C100B5
:100E6000E091AB01F091AC0182E08083E091A701B9
:100E7000F091A8011082E091A901F091AA018FECF4
:100E800080831092B301E091AF01F091B00186E050
:100E90008083E091AD01F091AE018081806180831B
:100EA000E091AD01F091AE01808188608083E09196
:100EB000AD01F091AE01808180688083E091AD0149
:100EC000F091AE0180818F7D808382E00E94C70314
:100ED0000E941805812C912C5401839440E0642ECB
:100EE00040E0742E8FB7F89440919701509198018B
:100EF0006091990170919A018FBF809194029091B5
:100F00009502A0919602B0919702481B590B6A0B6B
:100F10007B0B8091A0029091A102B0E0A0E0841729
:100F20009507A607B70708F0C2C1C0E080919E02EE
:100F3000C81760F4E0919A02F0919B02EC0FF11D4A
:100F400062E080810E949F01CF5FF0CF512C8091A1
:100F50009F02581608F05FC0052D10E0E0919C023A
:100F6000F0919D02E00FF11F61E080810E949F01DE
:100F7000E0919C02F0919D02E00FF11F60E0808102
:100F80000E947101D501C401052C04C0880F991F6E
:100F9000AA1FBB1F0A94D2F76C017C01E094F09465
:100FA000412C80919E024816F8F4C42DD0E0E091C7
:100FB0009A02F0919B02EC0FFD1F80810E94480174
:100FC0002496CC0FDD1FC85CDD4F892B41F488814E
:100FD00099818C299D29998388834394E2CF8881C4
:100FE00099818E219F21F7CFE0919C02F0919D0283
:100FF000E00FF11F61E080810E94710180919C02ED
:1010000090919D02080F191F60E0D8018C910E94F9
:101010009F0153949CCF08E312E0E8018F8D98A1C3
:10102000892B31F41C8EEFEFFFEFFE8FED8F19A2AD
:101030002696F2E0C437DF0789F7F12C80919E02F3
:10104000F81608F053C0E12CCF2CD12CCC0CDD1CB1
:10105000C601805C9D4F6C0120919F02E21608F052
:1010600043C0D6016D917C910E2C02C07695679598
:101070000A94E2F7F29E900111242E0D311DE8E34F
:10108000F2E080E0458D568D2417350709F4C1C183
:101090008F5F36968A30B1F760FF24C0E8E3F2E054
:1010A00090E080E0448D411118C0E0919802F091E9
:1010B0009902E20FF31F4081B6E0B89FF001B99F9B
:1010C000F00D1124E85CFD4F448F368F258F10A260
:1010D000178E61E00E94AF0005C0019636968A30F7
:1010E000910501F7E394B8CFF394A8CFE8E3F2E0D9
:1010F00080E091A19111892F3696CE17DF07C9F7AD
:101100009FB7F8944091970150919801609199018F
:1011100070919A019FBF40939402509395026093FF
:10112000960270939702882309F4C1C0F80181A147
:10113000882309F4B4C0878D90A1019709F035C0C8
:10114000E48DE352E23208F030C00E2E000CFF0BAB
:10115000E455F74F0C94410A3809D508D508D5084D
:10116000D508D508D5084009D508D508D508D5082B
:10117000D5083C09CE080C09100918091C092009DA
:1011800028092C093009D508D508D508D508D5086F
:10119000D508D5081409240934094409609190013F
:1011A000645C4FE780E90E941C03D8015F968D9133
:1011B0009C919097039709F072C05C96EC91E35272
:1011C000E23208F06CC00E2E000CFF0BE651F74F18
:1011D0000C94410AD6094F094F094F094F094F098D
:1011E0004F09DE094F094F094F094F094F09DA0925
:1011F0004809AA09AE09B609BA09BE09C609CA0949
:10120000CE094F094F094F094F094F094F094F099F
:10121000B209C209D209E20960919001635CC1CFB1
:1012200060919001625CBDCF60919001615CB9CF2B
:1012300060919001605CB5CF609190016F5BB1CF20
:10124000609190016E5BADCF609190016D5BA9CF15
:10125000609190016C5BA5CF609190016B5BA1CF19
:10126000609190016A5B9DCF60919001695B99CF1D
:1012700060919001685B95CF60919001675B91CF21
:1012800060919001665B8DCF60919001655B89CF25
:1012900060919001645C40E080E80E941C030A5F5A
:1012A0001F4FE8E9F2E0E017F10709F03FCF8BE9C3
:1012B00091E00E946902892B09F440C08BE991E01A
:1012C0000E94470280930201682F8BE991E00E94FF
:1012D000AB0264E871E08BE991E00E9488040E940F
:1012E000DB011B012C0188EEC82E83E0D82EE12CF7
:1012F000F12C0E94DB016219730984099509683E8B
:10130000734081059105A8F3F1E0CF1AD108E108F7
:10131000F10828EE220E23E0321E411C511CC1149C
:10132000D104E104F10429F780910201843509F424
:101330005BC00CF04BC08F3409F464C061147104BD
:1013400009F4D0CD0E947502882309F4CBCD0E9408
:101350000000C8CD60919001635C9DCF60919001C9
:10136000625C99CF60919001615C95CF6091900132
:10137000605C91CF609190016F5B8DCF6091900127
:101380006E5B89CF609190016D5B85CF609190011C
:101390006C5B81CF609190016B5B7DCF6091900120
:1013A0006A5B79CF60919001695B75CF6091900124
:1013B000685B71CF60919001675B6DCF6091900128
:1013C000665B69CF60919001655B65CF8F3699F060
:1013D000843709F0B3CF8FEF9FEF0E94660587E84F
:1013E00091E00E947F05AACF81E090E00E9466050F
:1013F00088E891E0F6CF84EF9FEF0E9466058AE8C7
:1014000091E0EFCF8CE090E00E9466058BE891E0E0
:10141000E8CF61705FCE97FB072E16F4009407D0DB
:1014200077FD09D00E94470A07FC05D03EF490954D
:1014300081959F4F0895709561957F4F0895A1E222
:101440001A2EAA1BBB1BFD010DC0AA1FBB1FEE1F3E
:10145000FF1FA217B307E407F50720F0A21BB30B89
:10146000E40BF50B661F771F881F991F1A9469F705
:1014700060957095809590959B01AC01BD01CF0161
:101480000895EE0FFF1F0590F491E02D0994AA1B1B
:10149000BB1B51E107C0AA1FBB1FA617B70710F05F
:1014A000A61BB70B881F991F5A95A9F78095909591
:0A14B000BC01CD010895F894FFCFB0
:1014BA000500203132334134353642373839432337
:1014CA00302A4400000000AB020B023802F802691D
:1014DA000247025B02000000000002040208020048
:1014EA0000000082040B0219031803070605040B07
:1014FA000A090843202F20004323202F20004420DC
:10150A002F20004423202F200045202F2000462092
:10151A002F20004623202F200047202F200047237A
:10152A00202F200041202F20004123202F2000427D
:0E153A00202F20000D0A002D31002D3132002F
:00000001FF
